|     | Hex signature                                                                                               | ISO 8859-1                           | Offset                  | Extension                                                     | Description                                                                                                                                                                                                                                                                                                                                        |
|----:|:------------------------------------------------------------------------------------------------------------|:-------------------------------------|:------------------------|:--------------------------------------------------------------|:---------------------------------------------------------------------------------------------------------------------------------------------------------------------------------------------------------------------------------------------------------------------------------------------------------------------------------------------------|
|   0 | 23 21                                                                                                       | #!                                   | 0                       |                                                               | Script or data to be passed to the program following the shebang (#!)                                                                                                                                                                                                                                                                              |
|   1 | 02 00 5a 57 52 54 00 00 00 00 00 00 00 00 00 00                                                             | ␂␀ZWRT␀␀␀␀␀␀␀␀␀␀                     | 0                       | cwk                                                           | Claris Works word processing doc                                                                                                                                                                                                                                                                                                                   |
|   2 | 00 00 02 00 06 04 06 00 08 00 00 00 00 00                                                                   | ␀␀␂␀␆␄␆␀␈␀␀␀␀␀                       | 0                       | wk1                                                           | Lotus 1-2-3 spreadsheet (v1) file                                                                                                                                                                                                                                                                                                                  |
|   3 | 00 00 1A 00 00 10 04 00 00 00 00 00                                                                         | ␀␀␚␀␀␊␄␀␀␀␀␀                         | 0                       | wk3                                                           | Lotus 1-2-3 spreadsheet (v3) file                                                                                                                                                                                                                                                                                                                  |
|   4 | 00 00 1A 00 02 10 04 00 00 00 00 00                                                                         | ␀␀␚␀␂␊␄␀␀␀␀␀                         | 0                       | wk4                                                           | Lotus 1-2-3 spreadsheet (v4, v5) file                                                                                                                                                                                                                                                                                                              |
|     |                                                                                                             |                                      |                         | wk5                                                           |                                                                                                                                                                                                                                                                                                                                                    |
|   5 | 00 00 1A 00 05 10 04                                                                                        | ␀␀␚␀␅␊␄                              | 0                       | 123                                                           | Lotus 1-2-3 spreadsheet (v9) file                                                                                                                                                                                                                                                                                                                  |
|   6 | 00 00 03 F3                                                                                                 | ␀␀␃ó                                 | 0                       |                                                               | Amiga Hunk executable file                                                                                                                                                                                                                                                                                                                         |
|   7 | 00 00 49 49 58 50 52 (little-endian)                                                                        | ␀␀IIXPR                              | 0                       | qxd                                                           | Quark Express document                                                                                                                                                                                                                                                                                                                             |
|     | 00 00 4D 4D 58 50 52 (big-endian)                                                                           | ␀␀MMXPR                              |                         |                                                               |                                                                                                                                                                                                                                                                                                                                                    |
|   8 | 50 57 53 33                                                                                                 | PWS3                                 | 0                       | psafe3                                                        | Password Gorilla Password Database                                                                                                                                                                                                                                                                                                                 |
|   9 | D4 C3 B2 A1 (little-endian)                                                                                 | ÔÃ²¡                                 | 0                       | pcap                                                          | Libpcap File Format                                                                                                                                                                                                                                                                                                                                |
|  10 | 4D 3C B2 A1 (little-endian)                                                                                 | M<²¡                                 | 0                       | pcap                                                          | Libpcap File Format (nanosecond-resolution)                                                                                                                                                                                                                                                                                                        |
|  11 | 0A 0D 0D 0A                                                                                                 | ␊␍␍␊                                 | 0                       | pcapng                                                        | PCAP Next Generation Dump File Format                                                                                                                                                                                                                                                                                                              |
|  12 | ED AB EE DB                                                                                                 | í«îÛ                                 | 0                       | rpm                                                           | RedHat Package Manager (RPM) package                                                                                                                                                                                                                                                                                                               |
|  13 | 53 51 4C 69 74 65 20 66                                                                                     | SQLite format 3␀                     | 0                       | sqlitedb                                                      | SQLite Database                                                                                                                                                                                                                                                                                                                                    |
|     |  6F 72 6D 61 74 20 33 00                                                                                    |                                      |                         | sqlite                                                        |                                                                                                                                                                                                                                                                                                                                                    |
|     |                                                                                                             |                                      |                         | db                                                            |                                                                                                                                                                                                                                                                                                                                                    |
|  14 | 53 50 30 31                                                                                                 | SP01                                 | 0                       | bin                                                           | Amazon Kindle Update Package                                                                                                                                                                                                                                                                                                                       |
|  15 | 49 57 41 44                                                                                                 | IWAD                                 | 0                       | wad                                                           | internal WAD (main resource file of Doom)                                                                                                                                                                                                                                                                                                          |
|  16 | 00                                                                                                          | ␀                                    | 0                       | PIC                                                           | IBM Storyboard bitmap file                                                                                                                                                                                                                                                                                                                         |
|     |                                                                                                             |                                      |                         | PIF                                                           | Windows Program Information File                                                                                                                                                                                                                                                                                                                   |
|     |                                                                                                             |                                      |                         | SEA                                                           | Mac Stuffit Self-Extracting Archive                                                                                                                                                                                                                                                                                                                |
|     |                                                                                                             |                                      |                         | YTR                                                           | IRIS OCR data file                                                                                                                                                                                                                                                                                                                                 |
|  17 | 00 00 00 00 00 00 00 00                                                                                     | ␀␀␀␀␀␀␀␀                             | 11                      | PDB                                                           | PalmPilot Database/Document File                                                                                                                                                                                                                                                                                                                   |
|     |  00 00 00 00 00 00 00 00                                                                                    |  ␀␀␀␀␀␀␀␀                            |                         |                                                               |                                                                                                                                                                                                                                                                                                                                                    |
|     |  00 00 00 00 00 00 00 00                                                                                    |  ␀␀␀␀␀␀␀␀                            |                         |                                                               |                                                                                                                                                                                                                                                                                                                                                    |
|  18 | BE BA FE CA                                                                                                 | ¾ºþÊ                                 | 0                       | DBA                                                           | Palm Desktop Calendar Archive                                                                                                                                                                                                                                                                                                                      |
|  19 | 00 01 42 44                                                                                                 | ␀␁BD                                 | 0                       | DBA                                                           | Palm Desktop To Do Archive                                                                                                                                                                                                                                                                                                                         |
|  20 | 00 01 44 54                                                                                                 | ␀␁DT                                 | 0                       | TDA                                                           | Palm Desktop Calendar Archive                                                                                                                                                                                                                                                                                                                      |
|  21 | 54 44 46 24                                                                                                 | TDF$                                 | 0                       | TDF$                                                          | Telegram Desktop File                                                                                                                                                                                                                                                                                                                              |
|  22 | 54 44 45 46                                                                                                 | TDEF                                 | 0                       | TDEF                                                          | Telegram Desktop Encrypted File                                                                                                                                                                                                                                                                                                                    |
|  23 | 00 01 00 00                                                                                                 | ␀␁␀␀                                 | 0                       |                                                               | Palm Desktop Data File (Access format)                                                                                                                                                                                                                                                                                                             |
|  24 | 00 00 01 00                                                                                                 | ␀␀␁␀                                 | 0                       | ico                                                           | Computer icon encoded in ICO file format                                                                                                                                                                                                                                                                                                           |
|  25 | 69 63 6e 73                                                                                                 | icns                                 | 0                       | icns                                                          | Apple Icon Image format                                                                                                                                                                                                                                                                                                                            |
|  26 | 66 74 79 70 33 67                                                                                           | ftyp3g                               | 4                       | 3gp                                                           | 3rd Generation Partnership Project 3GPP and 3GPP2 multimedia files                                                                                                                                                                                                                                                                                 |
|     |                                                                                                             |                                      |                         | 3g2                                                           |                                                                                                                                                                                                                                                                                                                                                    |
|  27 | 66 74 79 70 68 65 69 6366 74 79 70 6d                                                                       | ftypheic                             | 4                       | heic                                                          | High Efficiency Image Container (HEIC)                                                                                                                                                                                                                                                                                                             |
|  28 | 1F 9D                                                                                                       | ␟□                                   | 0                       | z                                                             | compressed file (often tar zip) using Lempel-Ziv-Welch algorithm                                                                                                                                                                                                                                                                                   |
|     |                                                                                                             |                                      |                         | tar.z                                                         |                                                                                                                                                                                                                                                                                                                                                    |
|  29 | 1F A0                                                                                                       | ␟⍽                                   | 0                       | z                                                             | Compressed file (often tar zip) using LZH algorithm                                                                                                                                                                                                                                                                                                |
|     |                                                                                                             |                                      |                         | tar.z                                                         |                                                                                                                                                                                                                                                                                                                                                    |
|  30 | 2D 6C 68 30 2D                                                                                              | -lh0-                                | 2                       | lzh                                                           | Lempel Ziv Huffman archive file Method 0 (No compression)                                                                                                                                                                                                                                                                                          |
|  31 | 2D 6C 68 35 2D                                                                                              | -lh5-                                | 2                       | lzh                                                           | Lempel Ziv Huffman archive file Method 5 (8 KiB sliding window)                                                                                                                                                                                                                                                                                    |
|  32 | 42 41 43 4B 4D 49 4B 45                                                                                     | BACKMIKEDISK                         | 0                       | bac                                                           | AmiBack Amiga Backup data file                                                                                                                                                                                                                                                                                                                     |
|     |  44 49 53 4B                                                                                                |                                      |                         |                                                               |                                                                                                                                                                                                                                                                                                                                                    |
|  33 | 49 4E 44 58                                                                                                 | INDX                                 | 0                       | idx                                                           | AmiBack Amiga Backup index file                                                                                                                                                                                                                                                                                                                    |
|  34 | 62 70 6C 69 73 74                                                                                           | bplist                               | 0                       | plist                                                         | Binary Property List file                                                                                                                                                                                                                                                                                                                          |
|  35 | 42 5A 68                                                                                                    | BZh                                  | 0                       | bz2                                                           | Compressed file using Bzip2 algorithm                                                                                                                                                                                                                                                                                                              |
|  36 | 47 49 46 38 37 61                                                                                           | GIF87a                               | 0                       | gif                                                           | Image file encoded in the Graphics Interchange Format (GIF)                                                                                                                                                                                                                                                                                        |
|     | 47 49 46 38 39 61                                                                                           | GIF89a                               |                         |                                                               |                                                                                                                                                                                                                                                                                                                                                    |
|  37 | 49 49 2A 00 (little-endian)                                                                                 | II*␀                                 | 0                       | tif                                                           | Tagged Image File Format (TIFF)                                                                                                                                                                                                                                                                                                                    |
|     |                                                                                                             |                                      |                         | tiff                                                          |                                                                                                                                                                                                                                                                                                                                                    |
|  38 | 49 49 2B 00 (little-endian)                                                                                 | II+␀                                 | 0                       | tiftiff                                                       | BigTIFF                                                                                                                                                                                                                                                                                                                                            |
|  39 | 49 49 2A 00 10 00 00 00                                                                                     | II*␀␐␀␀␀CR                           | 0                       | cr2                                                           | Canon RAW Format Version 2                                                                                                                                                                                                                                                                                                                         |
|     |  43 52                                                                                                      |                                      |                         |                                                               | Canon's RAW format is based on TIFF.                                                                                                                                                                                                                                                                                                               |
|  40 | 80 2A 5F D7                                                                                                 | €*_×                                 | 0                       | cin                                                           | Kodak Cineon image                                                                                                                                                                                                                                                                                                                                 |
|  41 | 52 4E 43 01                                                                                                 | RNC␁                                 | 0                       |                                                               | Compressed file using Rob Northen Compression (version 1 and 2) algorithm                                                                                                                                                                                                                                                                          |
|     | 52 4E 43 02                                                                                                 | RNC␂                                 |                         |                                                               |                                                                                                                                                                                                                                                                                                                                                    |
|  42 | 4E 55 52 55 49 4D 47                                                                                        | NURUIMG                              | 0                       | nui                                                           | nuru ASCII/ANSI image and palette files                                                                                                                                                                                                                                                                                                            |
|     | 4E 55 52 55 50 41 4C                                                                                        | NURUPAL                              |                         | nup                                                           |                                                                                                                                                                                                                                                                                                                                                    |
|  43 | 53 44 50 58 (big-endian format)                                                                             | SDPX                                 | 0                       | dpx                                                           | SMPTE DPX image                                                                                                                                                                                                                                                                                                                                    |
|  44 | 76 2F 31 01                                                                                                 | v/1␁                                 | 0                       | exr                                                           | OpenEXR image                                                                                                                                                                                                                                                                                                                                      |
|  45 | 42 50 47 FB                                                                                                 | BPGû                                 | 0                       | bpg                                                           | Better Portable Graphics format                                                                                                                                                                                                                                                                                                                    |
|  46 | FF D8 FF DB                                                                                                 | ÿØÿÛ                                 | 0                       | jpg                                                           | JPEG raw or in the JFIF or Exif file format                                                                                                                                                                                                                                                                                                        |
|     |                                                                                                             |                                      |                         | jpeg                                                          |                                                                                                                                                                                                                                                                                                                                                    |
|  47 | FF D8 FF E0                                                                                                 | ÿØÿà                                 | 0                       | jpg                                                           | JPEG raw or in the JFIF or Exif file format                                                                                                                                                                                                                                                                                                        |
|  48 | 00 00 00 0C 6A 50 20 20 0D 0A 87 0A                                                                         | ␀␀␀␌jP␠␠␍␊‡␊                         | 0                       | jp2                                                           | JPEG 2000 format                                                                                                                                                                                                                                                                                                                                   |
|     |                                                                                                             |                                      |                         | j2k                                                           |                                                                                                                                                                                                                                                                                                                                                    |
|     |                                                                                                             |                                      |                         | jpf                                                           |                                                                                                                                                                                                                                                                                                                                                    |
|     |                                                                                                             |                                      |                         | jpm                                                           |                                                                                                                                                                                                                                                                                                                                                    |
|     |                                                                                                             |                                      |                         | jpg2                                                          |                                                                                                                                                                                                                                                                                                                                                    |
|     |                                                                                                             |                                      |                         | j2c                                                           |                                                                                                                                                                                                                                                                                                                                                    |
|     |                                                                                                             |                                      |                         | jpc                                                           |                                                                                                                                                                                                                                                                                                                                                    |
|     |                                                                                                             |                                      |                         | jpx                                                           |                                                                                                                                                                                                                                                                                                                                                    |
|     |                                                                                                             |                                      |                         | mj2                                                           |                                                                                                                                                                                                                                                                                                                                                    |
|  49 | 71 6F 69 66                                                                                                 | qoif                                 | 0                       | qoi                                                           | QOI - The “Quite OK Image Format”                                                                                                                                                                                                                                                                                                                  |
|  50 | 46 4F 52 4D ?? ?? ?? ??                                                                                     | FORM????ILBM                         | 0                       | ilbm                                                          | IFF Interleaved Bitmap Image                                                                                                                                                                                                                                                                                                                       |
|     |  49 4C 42 4D                                                                                                |                                      | any                     | lbm                                                           |                                                                                                                                                                                                                                                                                                                                                    |
|     |                                                                                                             |                                      |                         | ibm                                                           |                                                                                                                                                                                                                                                                                                                                                    |
|     |                                                                                                             |                                      |                         | iff                                                           |                                                                                                                                                                                                                                                                                                                                                    |
|  51 | 46 4F 52 4D ?? ?? ?? ??                                                                                     | FORM????8SVX                         | 0                       | 8svx                                                          | IFF 8-Bit Sampled Voice                                                                                                                                                                                                                                                                                                                            |
|     |  38 53 56 58                                                                                                |                                      | any                     | 8sv                                                           |                                                                                                                                                                                                                                                                                                                                                    |
|     |                                                                                                             |                                      |                         | svx                                                           |                                                                                                                                                                                                                                                                                                                                                    |
|     |                                                                                                             |                                      |                         | snd                                                           |                                                                                                                                                                                                                                                                                                                                                    |
|     |                                                                                                             |                                      |                         | iff                                                           |                                                                                                                                                                                                                                                                                                                                                    |
|  52 | 46 4F 52 4D ?? ?? ?? ??                                                                                     | FORM????ACBM                         | 0                       | acbm                                                          | Amiga Contiguous Bitmap                                                                                                                                                                                                                                                                                                                            |
|     |  41 43 42 4D                                                                                                |                                      | any                     | iff                                                           |                                                                                                                                                                                                                                                                                                                                                    |
|  53 | 46 4F 52 4D ?? ?? ?? ??                                                                                     | FORM????ANBM                         | 0                       | anbm                                                          | IFF Animated Bitmap                                                                                                                                                                                                                                                                                                                                |
|     |  41 4E 42 4D                                                                                                |                                      | any                     | iff                                                           |                                                                                                                                                                                                                                                                                                                                                    |
|  54 | 46 4F 52 4D ?? ?? ?? ??                                                                                     | FORM????ANIM                         | 0                       | anim                                                          | IFF CEL Animation                                                                                                                                                                                                                                                                                                                                  |
|     |  41 4E 49 4D                                                                                                |                                      | any                     | iff                                                           |                                                                                                                                                                                                                                                                                                                                                    |
|  55 | 46 4F 52 4D ?? ?? ?? ??                                                                                     | FORM????FAXX                         | 0                       | faxx                                                          | IFF Facsimile Image                                                                                                                                                                                                                                                                                                                                |
|     |  46 41 58 58                                                                                                |                                      | any                     | fax                                                           |                                                                                                                                                                                                                                                                                                                                                    |
|     |                                                                                                             |                                      |                         | iff                                                           |                                                                                                                                                                                                                                                                                                                                                    |
|  56 | 46 4F 52 4D ?? ?? ?? ??                                                                                     | FORM????FTXT                         | 0                       | ftxt                                                          | IFF Formatted Text                                                                                                                                                                                                                                                                                                                                 |
|     |  46 54 58 54                                                                                                |                                      | any                     | iff                                                           |                                                                                                                                                                                                                                                                                                                                                    |
|  57 | 46 4F 52 4D ?? ?? ?? ??                                                                                     | FORM????SMUS                         | 0                       | smus                                                          | IFF Simple Musical Score                                                                                                                                                                                                                                                                                                                           |
|     |  53 4D 55 53                                                                                                |                                      | any                     | smu                                                           |                                                                                                                                                                                                                                                                                                                                                    |
|     |                                                                                                             |                                      |                         | mus                                                           |                                                                                                                                                                                                                                                                                                                                                    |
|     |                                                                                                             |                                      |                         | iff                                                           |                                                                                                                                                                                                                                                                                                                                                    |
|  58 | 46 4F 52 4D ?? ?? ?? ??                                                                                     | FORM????CMUS                         | 0                       | cmus                                                          | IFF Musical Score                                                                                                                                                                                                                                                                                                                                  |
|     |  43 4D 55 53                                                                                                |                                      | any                     | mus                                                           |                                                                                                                                                                                                                                                                                                                                                    |
|     |                                                                                                             |                                      |                         | iff                                                           |                                                                                                                                                                                                                                                                                                                                                    |
|  59 | 46 4F 52 4D ?? ?? ?? ??                                                                                     | FORM????YUVN                         | 0                       | yuvn                                                          | IFF YUV Image                                                                                                                                                                                                                                                                                                                                      |
|     |  59 55 56 4E                                                                                                |                                      | any                     | yuv                                                           |                                                                                                                                                                                                                                                                                                                                                    |
|     |                                                                                                             |                                      |                         | iff                                                           |                                                                                                                                                                                                                                                                                                                                                    |
|  60 | 46 4F 52 4D ?? ?? ?? ??                                                                                     | FORM????FANT                         | 0                       | iff                                                           | Amiga Fantavision Movie                                                                                                                                                                                                                                                                                                                            |
|     |  46 41 4E 54                                                                                                |                                      | any                     |                                                               |                                                                                                                                                                                                                                                                                                                                                    |
|  61 | 46 4F 52 4D ?? ?? ?? ??                                                                                     | FORM????AIFF                         | 0                       | aiff                                                          | Audio Interchange File Format                                                                                                                                                                                                                                                                                                                      |
|     |  41 49 46 46                                                                                                |                                      | any                     | aif                                                           |                                                                                                                                                                                                                                                                                                                                                    |
|     |                                                                                                             |                                      |                         | aifc                                                          |                                                                                                                                                                                                                                                                                                                                                    |
|     |                                                                                                             |                                      |                         | snd                                                           |                                                                                                                                                                                                                                                                                                                                                    |
|     |                                                                                                             |                                      |                         | iff                                                           |                                                                                                                                                                                                                                                                                                                                                    |
|  62 | 4C 5A 49 50                                                                                                 | LZIP                                 | 0                       | lz                                                            | lzip compressed file                                                                                                                                                                                                                                                                                                                               |
|  63 | 30 37 30 37 30 31                                                                                           | 070701                               | 0                       | cpio                                                          | cpio "new" ASCII archive file                                                                                                                                                                                                                                                                                                                      |
|  64 | 30 37 30 37 30 32                                                                                           | 070702                               | 0                       | cpio                                                          | cpio ASCII archive file with crc                                                                                                                                                                                                                                                                                                                   |
|  65 | 30 37 30 37 30 37                                                                                           | 070707                               | 0                       | cpio                                                          | cpio ASCII archive file                                                                                                                                                                                                                                                                                                                            |
|  66 | 4D 5A                                                                                                       | MZ                                   | 0                       | exe                                                           | DOS MZ executable and its descendants (including NE and PE)                                                                                                                                                                                                                                                                                        |
|     |                                                                                                             |                                      |                         | dll                                                           |                                                                                                                                                                                                                                                                                                                                                    |
|     |                                                                                                             |                                      |                         | mui                                                           |                                                                                                                                                                                                                                                                                                                                                    |
|     |                                                                                                             |                                      |                         | sys                                                           |                                                                                                                                                                                                                                                                                                                                                    |
|     |                                                                                                             |                                      |                         | scr                                                           |                                                                                                                                                                                                                                                                                                                                                    |
|     |                                                                                                             |                                      |                         | cpl                                                           |                                                                                                                                                                                                                                                                                                                                                    |
|     |                                                                                                             |                                      |                         | ocx                                                           |                                                                                                                                                                                                                                                                                                                                                    |
|     |                                                                                                             |                                      |                         | ax                                                            |                                                                                                                                                                                                                                                                                                                                                    |
|     |                                                                                                             |                                      |                         | iec                                                           |                                                                                                                                                                                                                                                                                                                                                    |
|     |                                                                                                             |                                      |                         | ime                                                           |                                                                                                                                                                                                                                                                                                                                                    |
|     |                                                                                                             |                                      |                         | rs                                                            |                                                                                                                                                                                                                                                                                                                                                    |
|     |                                                                                                             |                                      |                         | tsp                                                           |                                                                                                                                                                                                                                                                                                                                                    |
|     |                                                                                                             |                                      |                         | fon                                                           |                                                                                                                                                                                                                                                                                                                                                    |
|     |                                                                                                             |                                      |                         | efi                                                           |                                                                                                                                                                                                                                                                                                                                                    |
|  67 | 53 4D 53 4E 46 32 30 30                                                                                     | SMSNF200                             | 0                       | ssp                                                           | SmartSniff Packets File                                                                                                                                                                                                                                                                                                                            |
|  68 | 5A 4D                                                                                                       | ZM                                   | 0                       | exe                                                           | DOS ZM executable and its descendants (rare)                                                                                                                                                                                                                                                                                                       |
|  69 | 50 4B 03 04                                                                                                 | PK␃␄                                 | 0                       | zip                                                           | zip file format and formats based on it, such as EPUB, JAR, ODF, OOXML                                                                                                                                                                                                                                                                             |
|     | 50 4B 05 06 (empty archive)                                                                                 | PK␅␆                                 |                         | aar                                                           |                                                                                                                                                                                                                                                                                                                                                    |
|     | 50 4B 07 08 (spanned archive)                                                                               | PK␇␈                                 |                         | apk                                                           |                                                                                                                                                                                                                                                                                                                                                    |
|     |                                                                                                             |                                      |                         | docx                                                          |                                                                                                                                                                                                                                                                                                                                                    |
|     |                                                                                                             |                                      |                         | epub                                                          |                                                                                                                                                                                                                                                                                                                                                    |
|     |                                                                                                             |                                      |                         | ipa                                                           |                                                                                                                                                                                                                                                                                                                                                    |
|     |                                                                                                             |                                      |                         | jar                                                           |                                                                                                                                                                                                                                                                                                                                                    |
|     |                                                                                                             |                                      |                         | kmz                                                           |                                                                                                                                                                                                                                                                                                                                                    |
|     |                                                                                                             |                                      |                         | maff                                                          |                                                                                                                                                                                                                                                                                                                                                    |
|     |                                                                                                             |                                      |                         | msix                                                          |                                                                                                                                                                                                                                                                                                                                                    |
|     |                                                                                                             |                                      |                         | odp                                                           |                                                                                                                                                                                                                                                                                                                                                    |
|     |                                                                                                             |                                      |                         | ods                                                           |                                                                                                                                                                                                                                                                                                                                                    |
|     |                                                                                                             |                                      |                         | odt                                                           |                                                                                                                                                                                                                                                                                                                                                    |
|     |                                                                                                             |                                      |                         | pk3                                                           |                                                                                                                                                                                                                                                                                                                                                    |
|     |                                                                                                             |                                      |                         | pk4                                                           |                                                                                                                                                                                                                                                                                                                                                    |
|     |                                                                                                             |                                      |                         | pptx                                                          |                                                                                                                                                                                                                                                                                                                                                    |
|     |                                                                                                             |                                      |                         | usdz                                                          |                                                                                                                                                                                                                                                                                                                                                    |
|     |                                                                                                             |                                      |                         | vsdx                                                          |                                                                                                                                                                                                                                                                                                                                                    |
|     |                                                                                                             |                                      |                         | xlsx                                                          |                                                                                                                                                                                                                                                                                                                                                    |
|     |                                                                                                             |                                      |                         | xpiwhl                                                        |                                                                                                                                                                                                                                                                                                                                                    |
|  70 | 52 61 72 21 1A 07 00                                                                                        | Rar!␚␇␀                              | 0                       | rar                                                           | Roshal ARchive compressed archive v1.50 onwards                                                                                                                                                                                                                                                                                                    |
|  71 | 52 61 72 21 1A 07 01 00                                                                                     | Rar!␚␇␁␀                             | 0                       | rar                                                           | Roshal ARchive compressed archive v5.00 onwards                                                                                                                                                                                                                                                                                                    |
|  72 | 7F 45 4C 46                                                                                                 | ␡ELF                                 | 0                       | none, .axf, .bin, .elf, .o, .out, .prx, .puff, .ko, .mod, .so | Executable and Linkable Format                                                                                                                                                                                                                                                                                                                     |
|  73 | 89 50 4E 47 0D 0A 1A 0A                                                                                     | ‰PNG␍␊␚␊                             | 0                       | png                                                           | Image encoded in the Portable Network Graphics format                                                                                                                                                                                                                                                                                              |
|  74 | 0E 03 13 01                                                                                                 | ␅␃␓␁                                 | 0                       | hdf4                                                          | Data stored in version 4 of the Hierarchical Data Format.                                                                                                                                                                                                                                                                                          |
|     |                                                                                                             |                                      |                         | h4                                                            |                                                                                                                                                                                                                                                                                                                                                    |
|  75 | 89 48 44 46 0D 0A 1A 0A                                                                                     | ‰HDF␍␊␚␊                             | 0, 512, 1024, 2048, ... | hdf5                                                          | Data stored in version 5 of the Hierarchical Data Format.                                                                                                                                                                                                                                                                                          |
|     |                                                                                                             |                                      |                         | h5                                                            |                                                                                                                                                                                                                                                                                                                                                    |
|  76 | C9                                                                                                          | É                                    | 0                       | com                                                           | CP/M 3 and higher with overlays                                                                                                                                                                                                                                                                                                                    |
|  77 | CA FE BA BE                                                                                                 | Êþº¾                                 | 0                       | class                                                         | Java class file, Mach-O Fat Binary                                                                                                                                                                                                                                                                                                                 |
|  78 | EF BB BF                                                                                                    | ï»¿                                  | 0                       | txt                                                           | UTF-8 byte order mark, commonly seen in text files.                                                                                                                                                                                                                                                                                                |
|     |                                                                                                             |                                      |                         | others                                                        |                                                                                                                                                                                                                                                                                                                                                    |
|  79 | FF FE                                                                                                       | ÿþ                                   | 0                       | txt                                                           | UTF-16LE byte order mark, commonly seen in text files.                                                                                                                                                                                                                                                                                             |
|     |                                                                                                             |                                      |                         | others                                                        |                                                                                                                                                                                                                                                                                                                                                    |
